:100000000C945D000C9485000C9485000C94850084
:100010000C9485000C9485000C9485000C9485004C
:100020000C9485000C9485000C9485000C9485003C
:100030000C9485000C9485000C9485000C9485002C
:100040000C9483020C9485000C94F3020C94CD0262
:100050000C9485000C9485000C9485000C9485000C
:100060000C9485000C94850000000008000201003B
:100070000003040700000000000000000000000072
:10008000250028002B0000000000240027002A0083
:10009000040404040404040402020202020203032E
:1000A0000303030301020408102040800102040836
:1000B0001020010204081020250311241FBECFEFD9
:1000C000D8E0DEBFCDBF22E0A8E1B1E001C01D92C3
:1000D000A437B207E1F711E0A0E0B1E0E4EEFBE005
:1000E00002C005900D92A831B107D9F710E0CDE517
:1000F000D0E004C02197FE010E94E505CC35D10770
:10010000C9F70E9498030C94F0050C94000090E04D
:10011000FC01EC55FF4F2491FC01E057FF4F849107
:10012000882399F090E0880F991FFC01EA57FF4F50
:10013000A591B491FC01E458FF4F859194918FB73C
:10014000F894EC91E22BEC938FBF089590E0FC01C2
:10015000E859FF4F2491FC01EC55FF4F3491FC010D
:10016000E057FF4FE491EE2309F43CC0222339F11C
:10017000233091F038F42130A9F0223001F584B514
:100180008F7D12C0273091F02830A1F02430B9F4CF
:10019000809180008F7D03C0809180008F77809355
:1001A00080000DC084B58F7784BD09C08091B000F8
:1001B0008F7703C08091B0008F7D8093B000F0E016
:1001C000EE0FFF1FE458FF4FA591B4919FB7F8942D
:1001D000611104C08C913095382302C0EC913E2B04
:1001E0003C939FBF08951F93CF93DF93182FEB018C
:1001F0000E948700209711F460E004C0CF3FD10532
:1002000039F461E0812FDF91CF911F910C94A6000A
:10021000E12FF0E0E859FF4FE491E330F9F048F4C2
:10022000E130B9F0E230A1F584B5806284BDC8BD8B
:1002300034C0E730E9F0E83019F1E43049F5809155
:100240008000806280938000D0938B00C0938A00EE
:1002500024C084B5806884BDC7BD1FC08091800064
:10026000806880938000D0938900C093880015C077
:100270008091B00080688093B000C093B3000DC03F
:100280008091B00080628093B000C093B40005C03C
:10029000C038D1050CF0B5CFAFCFDF91CF911F9112
:1002A0000895CF92DF92EF92FF920F931F93CF9317
:1002B000DF936C017A018B01C0E0D0E0CE15DF0541
:1002C00081F0D8016D918D01D601ED91FC910190E5
:1002D000F081E02DC6010995892B11F02196EECF12
:1002E0007E01C701DF91CF911F910F91FF90EF9099
:1002F000DF90CF900895089580E090E00895FC018C
:10030000538D448D252F30E0842F90E0821B930B7A
:10031000541710F0CF96089501970895FC01918D20
:10032000828D981761F0828DDF01A80FB11D5D9657
:100330008C91928D9F5F9F73928F90E008958FEFC5
:100340009FEF0895FC01918D828D981731F0828D79
:10035000E80FF11D858D90E008958FEF9FEF0895D0
:10036000FC01918D228D892F90E0805C9F4F821B34
:1003700091098F739927089581E291E00E94B0015D
:1003800021E0892B09F420E0822F0895FC01848D5F
:10039000DF01A80FB11DA35ABF4F2C91848D90E0AF
:1003A00001968F739927848FA689B7892C93A0898A
:1003B000B1898C91837080648C93938D848D981314
:1003C00006C00288F389E02D80818F7D80830895A7
:1003D000EF92FF920F931F93CF93DF93EC0181E095
:1003E000888F9B8D8C8D981305C0E889F989808151
:1003F00085FD26C0F62E0B8D10E00F5F1F4F0F738B
:100400001127E02E8C8DE8120CC00FB607FCFACF36
:10041000E889F989808185FFF5CFCE010E94C60168
:10042000F1CF8B8DFE01E80FF11DE35AFF4FF082F3
:100430009FB7F8940B8FEA89FB89808180620AC09C
:100440009FB7F894EE89FF896083E889F9898081F4
:100450008370806480839FBF81E090E0DF91CF91C3
:100460001F910F91FF90EF900895CF93DF93EC01D0
:10047000888D8823C9F0EA89FB89808185FD05C0C4
:10048000A889B9898C9186FD0FC00FB607FCF5CFFE
:10049000808185FFF2CFA889B9898C9185FFEDCF46
:1004A000CE010E94C601E7CFDF91CF91089580E091
:1004B00090E0892B29F00E94BC0181110C9400006E
:1004C0000895CF93DF93EC016E834F832887822FAB
:1004D00090E0A0E0B0E0942BA62B8A839B83AC83B2
:1004E000BD8370E089850E94F3006F8170E08A858A
:1004F0000E94F300688570E08B85DF91CF910C94AA
:10050000F3000E94EB051F920F920FB60F92112479
:100510002F933F938F939F93AF93BF9380911D0130
:1005200090911E01A0911F01B091200130911C01FA
:1005300023E0230F2D3720F40196A11DB11D05C026
:1005400026E8230F0296A11DB11D20931C01809364
:100550001D0190931E01A0931F01B0932001809173
:10056000180190911901A0911A01B0911B010196F7
:10057000A11DB11D8093180190931901A0931A0138
:10058000B0931B01BF91AF919F918F913F912F919C
:100590000F900FBE0F901F9018951F920F920FB6DD
:1005A0000F9211242F933F934F935F936F937F93F9
:1005B0008F939F93AF93BF93EF93FF9381E291E06B
:1005C0000E94C601FF91EF91BF91AF919F918F91D2
:1005D0007F916F915F914F913F912F910F900FBE3F
:1005E0000F901F9018951F920F920FB60F92112423
:1005F0002F938F939F93EF93FF93E0913101F091AD
:1006000032018081E0913701F091380182FD12C002
:10061000908180913A018F5F8F7320913B01821707
:1006200051F0E0913A01F0E0EF5DFE4F958F80933D
:100630003A0101C08081FF91EF919F918F912F919D
:100640000F900FBE0F901F901895E1E2F1E013821A
:10065000128288EE93E0A0E0B0E084839583A683C5
:10066000B78324E031E03183208325EC30E0358707
:10067000248724EC30E03787268720EC30E0318B6C
:10068000208B21EC30E0338B228B22EC30E0358B59
:10069000248B26EC30E0378B268B118E128E138E36
:1006A000148E2EE720933102E5E2F2E016821782E3
:1006B0001086128213821482158266E171E07183C2
:1006C000608346E041873AE032872BE0238710922F
:1006D0001B0210921C0210921D0210921E02109218
:1006E0001F02109220021092210270931A0260934E
:1006F0001902409322023093230220932402109285
:10070000110210921202109213021092140210920F
:1007100010022FEF3FEF30930F0220930E028093D1
:10072000150290931602A0931702B0931802089531
:10073000CF93DF9300D01F92CDB7DEB7789484B506
:10074000826084BD84B5816084BD85B5826085BDCD
:1007500085B5816085BD80916E00816080936E005B
:10076000109281008091810082608093810080914D
:1007700081008160809381008091800081608093FE
:1007800080008091B10084608093B1008091B000BE
:1007900081608093B00080917A00846080937A00B9
:1007A00080917A00826080937A0080917A008160E3
:1007B00080937A0080917A00806880937A0010920A
:1007C000C10080912E020E94870080912F020E941A
:1007D0008700809130020E948700E0913101F09102
:1007E000320182E08083E0912D01F0912E01108290
:1007F000E0912F01F091300180E180831092390166
:10080000E0913501F091360186E08083E09133017B
:10081000F0913401808180618083E0913301F09117
:100820003401808188608083E0913301F09134014C
:10083000808180688083E0913301F0913401808170
:100840008F7D8083412C512C3201439481E291E0D1
:100850000E94B00103970CF43BC181E291E00E9439
:100860008E012091310230E08217930709F030C1E8
:10087000ADB6BEB681E291E00E948E016C01182FE8
:1008800081E291E00E948E018B83103108F084C0D8
:1008900086011127480121E0821A91088DB79EB781
:1008A000801B910B0FB6F8949EBF0FBE8DBFADB7E6
:1008B000BEB711967D011D010A0F1B1FBA83A983C4
:1008C000E981FA81E017F10739F4F701E80DF91D24
:1008D0009081F7018B813EC02FB7F89480911D0164
:1008E00090911E01A0911F01B09120012FBF809314
:1008F000290190932A01A0932B01B0932C0181E24E
:1009000091E00E948E0197FF5AC12FB7F894809111
:100910001D0190911E01A0911F01B09120012FBFD8
:100920004091290150912A0160912B0170912C0175
:10093000841B950BA60BB70B409125015091260106
:10094000609127017091280184179507A607B707C2
:10095000B0F2BBCF9F012E193F09281539051CF4B1
:100960002191820FF7CF8095981310C0CA94C0923E
:100970003302FB81F0933202E4E3F2E02016310609
:1009800069F0D1018D911D018193F8CF0FB6F894D4
:10099000BEBE0FBEADBE9CC080E001C081E00FB600
:1009A000F894BEBE0FBEADBE882309F491C04DB70A
:1009B0005EB7109132028091330290E0EDB7FEB73E
:1009C000E81BF90B0FB6F894FEBF0FBEEDBFADB735
:1009D000BEB7119624E332E07D01B7016A1B7B0BA1
:1009E000681779073CF4F90161919F01F701619360
:1009F0007F01F3CF1C3149F01C3209F064C02C9107
:100A0000EEEBF1E080E090E046C020910E023091E4
:100A10000F026FE070E0C901062E02C0969587951F
:100A20000A94E2F780FF2EC011960C91119712964E
:100A30008C91129713961C91139795E0969FF00155
:100A4000979FF00D1124E254FE4F9C91908390E00B
:100A5000A0E0B0E0BA2FA92F982F8827A02B812BD8
:100A600081839283A383B483D301C20104C0880F1E
:100A7000991FAA1FBB1F6A95D2F780959095822374
:100A800093231DC06150710930F61DC00196359643
:100A900080319105C1F030812313F8CF9301820199
:100AA00004C0000F111F221F331F8A95D2F7D901EE
:100AB000C80120910E0230910F02822B932B90934C
:100AC0000F0280930E020FB6F8945EBF0FBE4DBFAB
:100AD0002FB7F89480911D0190911E01A0911F01E4
:100AE000B09120012FBF40911102509112026091EC
:100AF000130270911402841B950BA60BB70B409147
:100B00001502509116026091170270911802841715
:100B10009507A607B70708F44FC080910E02909181
:100B20000F020090100202C0969587950A94E2F792
:100B300080FD2BC02FB7F89480911D0190911E016C
:100B4000A0911F01B09120012FBF809311029093BB
:100B50001202A0931302B0931402E091100215E068
:100B60001E9FF0011124E254FE4F21813281438106
:100B70005481C32ED42EE52EFF24BA01882799274D
:100B80004C2D89E192E00E94610280910E029091C9
:100B90000F02019639F420E040E060E089E192E044
:100BA0000E946102809110028F5F803118F480935F
:100BB000100202C0109210020E94570247CEA98173
:100BC000BA818D93BA83A9837BCEEE0FFF1F059068
:100BD000F491E02D099481E090E0F8940C94F005F4
:040BE000F894FFCFB7
:100BE40000000000E80151017F013502B0018E01CF
:080BF400A201000000006102F3
:00000001FF
